{
  "contractName": "OnBoarding",
  "abi": [
    {
      "inputs": [
        {
          "internalType": "address",
          "name": "_user",
          "type": "address"
        }
      ],
      "stateMutability": "nonpayable",
      "type": "constructor"
    },
    {
      "anonymous": false,
      "inputs": [
        {
          "indexed": false,
          "internalType": "address",
          "name": "player_address",
          "type": "address"
        },
        {
          "indexed": false,
          "internalType": "bool",
          "name": "status",
          "type": "bool"
        }
      ],
      "name": "newPrinterAddition",
      "type": "event"
    },
    {
      "inputs": [
        {
          "internalType": "address",
          "name": "printerAddress",
          "type": "address"
        },
        {
          "internalType": "bytes32",
          "name": "name",
          "type": "bytes32"
        },
        {
          "internalType": "enum MaterialType[]",
          "name": "suppertedMaterial",
          "type": "uint8[]"
        },
        {
          "internalType": "uint256[]",
          "name": "nozzles",
          "type": "uint256[]"
        },
        {
          "internalType": "uint256",
          "name": "nozzlesMounted",
          "type": "uint256"
        },
        {
          "internalType": "uint256",
          "name": "printTemperature",
          "type": "uint256"
        },
        {
          "internalType": "uint256",
          "name": "bedTemperature",
          "type": "uint256"
        },
        {
          "internalType": "uint256",
          "name": "volume",
          "type": "uint256"
        },
        {
          "internalType": "bool",
          "name": "soluble",
          "type": "bool"
        },
        {
          "internalType": "bool",
          "name": "foodSafety",
          "type": "bool"
        }
      ],
      "name": "addPrinter",
      "outputs": [],
      "stateMutability": "payable",
      "type": "function",
      "payable": true
    },
    {
      "inputs": [],
      "name": "getMakerPrinters",
      "outputs": [
        {
          "components": [
            {
              "internalType": "bytes32",
              "name": "name",
              "type": "bytes32"
            },
            {
              "internalType": "enum MaterialType[]",
              "name": "supportedMaterial",
              "type": "uint8[]"
            },
            {
              "components": [
                {
                  "internalType": "bytes32",
                  "name": "name",
                  "type": "bytes32"
                },
                {
                  "internalType": "enum MaterialType",
                  "name": "mType",
                  "type": "uint8"
                },
                {
                  "internalType": "enum MaterialColor",
                  "name": "color",
                  "type": "uint8"
                },
                {
                  "internalType": "uint256",
                  "name": "quantityKG",
                  "type": "uint256"
                },
                {
                  "internalType": "uint256",
                  "name": "printTemperature",
                  "type": "uint256"
                },
                {
                  "internalType": "uint256",
                  "name": "bedTemperature",
                  "type": "uint256"
                }
              ],
              "internalType": "struct MaterialDetails",
              "name": "mountedMaterial",
              "type": "tuple"
            },
            {
              "internalType": "uint256[]",
              "name": "nozzles",
              "type": "uint256[]"
            },
            {
              "internalType": "uint256",
              "name": "mountedNozzles",
              "type": "uint256"
            },
            {
              "internalType": "uint256",
              "name": "maxPrintTemperature",
              "type": "uint256"
            },
            {
              "internalType": "uint256",
              "name": "maxBedTemperature",
              "type": "uint256"
            },
            {
              "internalType": "uint256",
              "name": "volume",
              "type": "uint256"
            },
            {
              "internalType": "bool",
              "name": "soluble",
              "type": "bool"
            },
            {
              "internalType": "bool",
              "name": "foodSafety",
              "type": "bool"
            },
            {
              "internalType": "bool",
              "name": "avaiable",
              "type": "bool"
            }
          ],
          "internalType": "struct Printer[]",
          "name": "mprinters",
          "type": "tuple[]"
        }
      ],
      "stateMutability": "view",
      "type": "function",
      "constant": true
    },
    {
      "inputs": [
        {
          "internalType": "uint256",
          "name": "index",
          "type": "uint256"
        }
      ],
      "name": "getMakerPrinter",
      "outputs": [
        {
          "components": [
            {
              "internalType": "bytes32",
              "name": "name",
              "type": "bytes32"
            },
            {
              "internalType": "enum MaterialType[]",
              "name": "supportedMaterial",
              "type": "uint8[]"
            },
            {
              "components": [
                {
                  "internalType": "bytes32",
                  "name": "name",
                  "type": "bytes32"
                },
                {
                  "internalType": "enum MaterialType",
                  "name": "mType",
                  "type": "uint8"
                },
                {
                  "internalType": "enum MaterialColor",
                  "name": "color",
                  "type": "uint8"
                },
                {
                  "internalType": "uint256",
                  "name": "quantityKG",
                  "type": "uint256"
                },
                {
                  "internalType": "uint256",
                  "name": "printTemperature",
                  "type": "uint256"
                },
                {
                  "internalType": "uint256",
                  "name": "bedTemperature",
                  "type": "uint256"
                }
              ],
              "internalType": "struct MaterialDetails",
              "name": "mountedMaterial",
              "type": "tuple"
            },
            {
              "internalType": "uint256[]",
              "name": "nozzles",
              "type": "uint256[]"
            },
            {
              "internalType": "uint256",
              "name": "mountedNozzles",
              "type": "uint256"
            },
            {
              "internalType": "uint256",
              "name": "maxPrintTemperature",
              "type": "uint256"
            },
            {
              "internalType": "uint256",
              "name": "maxBedTemperature",
              "type": "uint256"
            },
            {
              "internalType": "uint256",
              "name": "volume",
              "type": "uint256"
            },
            {
              "internalType": "bool",
              "name": "soluble",
              "type": "bool"
            },
            {
              "internalType": "bool",
              "name": "foodSafety",
              "type": "bool"
            },
            {
              "internalType": "bool",
              "name": "avaiable",
              "type": "bool"
            }
          ],
          "internalType": "struct Printer",
          "name": "myPrinter",
          "type": "tuple"
        }
      ],
      "stateMutability": "view",
      "type": "function",
      "constant": true
    },
    {
      "inputs": [
        {
          "internalType": "uint256",
          "name": "index",
          "type": "uint256"
        }
      ],
      "name": "removePrinter",
      "outputs": [],
      "stateMutability": "payable",
      "type": "function",
      "payable": true
    },
    {
      "inputs": [],
      "name": "getMakerNPrinters",
      "outputs": [
        {
          "internalType": "uint256",
          "name": "Nprinters",
          "type": "uint256"
        }
      ],
      "stateMutability": "view",
      "type": "function",
      "constant": true
    },
    {
      "inputs": [
        {
          "internalType": "bytes32",
          "name": "name",
          "type": "bytes32"
        },
        {
          "internalType": "enum MaterialType",
          "name": "mType",
          "type": "uint8"
        },
        {
          "internalType": "enum MaterialColor",
          "name": "mColor",
          "type": "uint8"
        },
        {
          "internalType": "uint256",
          "name": "quantityKG",
          "type": "uint256"
        },
        {
          "internalType": "uint256",
          "name": "printTemp",
          "type": "uint256"
        },
        {
          "internalType": "uint256",
          "name": "bedTemp",
          "type": "uint256"
        }
      ],
      "name": "addMaterials",
      "outputs": [],
      "stateMutability": "payable",
      "type": "function",
      "payable": true
    },
    {
      "inputs": [],
      "name": "getMaterials",
      "outputs": [
        {
          "components": [
            {
              "internalType": "bytes32",
              "name": "name",
              "type": "bytes32"
            },
            {
              "internalType": "enum MaterialType",
              "name": "mType",
              "type": "uint8"
            },
            {
              "internalType": "enum MaterialColor",
              "name": "color",
              "type": "uint8"
            },
            {
              "internalType": "uint256",
              "name": "quantityKG",
              "type": "uint256"
            },
            {
              "internalType": "uint256",
              "name": "printTemperature",
              "type": "uint256"
            },
            {
              "internalType": "uint256",
              "name": "bedTemperature",
              "type": "uint256"
            }
          ],
          "internalType": "struct MaterialDetails[]",
          "name": "av_materials",
          "type": "tuple[]"
        }
      ],
      "stateMutability": "view",
      "type": "function",
      "constant": true
    },
    {
      "inputs": [
        {
          "internalType": "bytes32",
          "name": "name",
          "type": "bytes32"
        }
      ],
      "name": "getMaterial",
      "outputs": [
        {
          "components": [
            {
              "internalType": "bytes32",
              "name": "name",
              "type": "bytes32"
            },
            {
              "internalType": "enum MaterialType",
              "name": "mType",
              "type": "uint8"
            },
            {
              "internalType": "enum MaterialColor",
              "name": "color",
              "type": "uint8"
            },
            {
              "internalType": "uint256",
              "name": "quantityKG",
              "type": "uint256"
            },
            {
              "internalType": "uint256",
              "name": "printTemperature",
              "type": "uint256"
            },
            {
              "internalType": "uint256",
              "name": "bedTemperature",
              "type": "uint256"
            }
          ],
          "internalType": "struct MaterialDetails",
          "name": "myMaterial",
          "type": "tuple"
        }
      ],
      "stateMutability": "view",
      "type": "function",
      "constant": true
    },
    {
      "inputs": [
        {
          "internalType": "bytes32",
          "name": "name",
          "type": "bytes32"
        },
        {
          "internalType": "enum MaterialType",
          "name": "mType",
          "type": "uint8"
        },
        {
          "internalType": "enum MaterialColor",
          "name": "mColor",
          "type": "uint8"
        },
        {
          "internalType": "uint256",
          "name": "quantityKG",
          "type": "uint256"
        },
        {
          "internalType": "uint256",
          "name": "printTemp",
          "type": "uint256"
        },
        {
          "internalType": "uint256",
          "name": "bedTemp",
          "type": "uint256"
        }
      ],
      "name": "updateMaterial",
      "outputs": [],
      "stateMutability": "payable",
      "type": "function",
      "payable": true
    },
    {
      "inputs": [
        {
          "internalType": "bytes32",
          "name": "name",
          "type": "bytes32"
        },
        {
          "internalType": "enum MaterialType",
          "name": "mType",
          "type": "uint8"
        }
      ],
      "name": "removeMaterial",
      "outputs": [],
      "stateMutability": "payable",
      "type": "function",
      "payable": true
    },
    {
      "inputs": [
        {
          "internalType": "bytes32",
          "name": "name",
          "type": "bytes32"
        },
        {
          "internalType": "enum MaterialType",
          "name": "mType",
          "type": "uint8"
        },
        {
          "internalType": "uint256",
          "name": "printer",
          "type": "uint256"
        }
      ],
      "name": "mountMaterial",
      "outputs": [],
      "stateMutability": "payable",
      "type": "function",
      "payable": true
    },
    {
      "inputs": [],
      "name": "getMterialsName",
      "outputs": [
        {
          "internalType": "bytes32[]",
          "name": "materials",
          "type": "bytes32[]"
        }
      ],
      "stateMutability": "view",
      "type": "function",
      "constant": true
    }
  ],
  "bytecode": "0x6101406040526000608081905260a081905260c081905260e08190526101008190526101208190528080556001805461ffff19169055600281905560038190556004553480156200004f57600080fd5b50604051620030a6380380620030a6833981016040819052620000729162000098565b600a80546001600160a01b0319166001600160a01b0392909216919091179055620000ca565b600060208284031215620000ab57600080fd5b81516001600160a01b0381168114620000c357600080fd5b9392505050565b612fcc80620000da6000396000f3fe6080604052600436106100a75760003560e01c80636b04fb47116100645780636b04fb47146101475780637be8eb451461016a57806380dfedcd1461017d578063a6bc77381461019f578063a901c126146101b2578063b0980fdf146101df57600080fd5b806315e10e99146100ac57806320b83e21146100c15780633bdda5e2146100ec57806354bf7965146100ff5780635a1b58a414610112578063623b8c2614610125575b600080fd5b6100bf6100ba366004612aeb565b61020c565b005b3480156100cd57600080fd5b506100d6610518565b6040516100e39190612d3f565b60405180910390f35b6100bf6100fa36600461295c565b61094b565b6100bf61010d366004612a8d565b610e46565b6100bf610120366004612a48565b611125565b34801561013157600080fd5b5061013a61132f565b6040516100e39190612cb9565b34801561015357600080fd5b5061015c611390565b6040519081526020016100e3565b6100bf610178366004612a8d565b6113cb565b34801561018957600080fd5b506101926116cc565b6040516100e39190612cfd565b6100bf6101ad366004612a61565b611938565b3480156101be57600080fd5b506101d26101cd366004612a48565b611f94565b6040516100e39190612e51565b3480156101eb57600080fd5b506101ff6101fa366004612a48565b6122b6565b6040516100e39190612e65565b600a5460405163e75600c360e01b81523360048201526001600160a01b039091169063e75600c39060240160206040518083038186803b15801561024f57600080fd5b505afa158015610263573d6000803e3d6000fd5b505050506040513d601f19601f820116820180604052508101906102879190612a24565b15156001146102dd5760405162461bcd60e51b815260206004820181905260248201527f4f6e6c79204d616b65722063616e2064656c657465204d6174657269616c732e60448201526064015b60405180910390fd5b6102e683612642565b15156001146103075760405162461bcd60e51b81526004016102d490612da1565b60005b3360009081526008602052604081209084600281111561032c5761032c612f2d565b600281111561033d5761033d612f2d565b815260208101919091526040016000205481101561051257336000908152600860205260408120859185600281111561037857610378612f2d565b600281111561038957610389612f2d565b815260200190815260200160002082815481106103a8576103a8612f59565b906000526020600020906005020160000154141561050057336000908152600860205260408120908460028111156103e2576103e2612f2d565b60028111156103f3576103f3612f2d565b8152602001908152602001600020818154811061041257610412612f59565b6000918252602080832033845260058083526040808620600790945285208054949091029091019391928690811061044c5761044c612f59565b60009182526020808320909101546001600160a01b0316835282019290925260400190208154600280830191825560018481015460039094018054939460ff1693909260ff19909116919084908111156104a8576104a8612f2d565b0217905550600182810154908201805460ff61010093849004169261ff00199091169083600b8111156104dd576104dd612f2d565b021790555060028281015490820155600380830154908201556004918201549101555b8061050a81612efc565b91505061030a565b50505050565b600a54604051629c95e160e41b81523360048201526060916001600160a01b0316906309c95e109060240160206040518083038186803b15801561055b57600080fd5b505afa15801561056f573d6000803e3d6000fd5b505050506040513d601f19601f820116820180604052508101906105939190612a24565b15156001146105b45760405162461bcd60e51b81526004016102d490612dd8565b600a5460405163e75600c360e01b81523360048201526001600160a01b039091169063e75600c39060240160206040518083038186803b1580156105f757600080fd5b505afa15801561060b573d6000803e3d6000fd5b505050506040513d601f19601f8201168201806040525081019061062f9190612a24565b15156001146106505760405162461bcd60e51b81526004016102d490612e0f565b3360009081526007602052604090205467ffffffffffffffff81111561067857610678612f6f565b6040519080825280602002602001820160405280156106b157816020015b61069e6126b1565b8152602001906001900390816106965790505b50905060005b3360009081526007602052604090205481101561094757336000908152600560209081526040808320600790925282208054919291849081106106fc576106fc612f59565b60009182526020808320909101546001600160a01b0316835282810193909352604091820190208151610160810183528154815260018201805484518187028101870190955280855291949293858401939092908301828280156107af57602002820191906000526020600020906000905b82829054906101000a900460ff16600281111561078d5761078d612f2d565b81526020600192830181810494850194909303909202910180841161076e5790505b50505050508152602001600282016040518060c0016040529081600082015481526020016001820160009054906101000a900460ff1660028111156107f6576107f6612f2d565b600281111561080757610807612f2d565b81526020016001820160019054906101000a900460ff16600b81111561082f5761082f612f2d565b600b81111561084057610840612f2d565b815260200160028201548152602001600382015481526020016004820154815250508152602001600782018054806020026020016040519081016040528092919081815260200182805480156108b557602002820191906000526020600020905b8154815260200190600101908083116108a1575b50505091835250506008820154602082015260098201546040820152600a8201546060820152600b8201546080820152600c9091015460ff808216151560a084015261010082048116151560c08401526201000090910416151560e090910152825183908390811061092957610929612f59565b6020026020010181905250808061093f90612efc565b9150506106b7565b5090565b600a54604051629c95e160e41b81523360048201526001600160a01b03909116906309c95e109060240160206040518083038186803b15801561098d57600080fd5b505afa1580156109a1573d6000803e3d6000fd5b505050506040513d601f19601f820116820180604052508101906109c59190612a24565b15156001146109e65760405162461bcd60e51b81526004016102d490612dd8565b600a5460405163e75600c360e01b81523360048201526001600160a01b039091169063e75600c39060240160206040518083038186803b158015610a2957600080fd5b505afa158015610a3d573d6000803e3d6000fd5b505050506040513d601f19601f82011682018060405250810190610a619190612a24565b1515600114610ab25760405162461bcd60e51b815260206004820152601c60248201527f4f6e6c79204d616b65722063616e20616464205072696e746572732e0000000060448201526064016102d4565b60408051610160810182528a815260208082018b9052825160c081018452600080548252600154909484019285919083019060ff166002811115610af857610af8612f2d565b6002811115610b0957610b09612f2d565b81526020016001820160019054906101000a900460ff16600b811115610b3157610b31612f2d565b600b811115610b4257610b42612f2d565b815260200160028201548152602001600382015481526020016004820154815250508152602001898152602001888152602001878152602001868152602001858152602001841515815260200183151581526020016001151581525090508060056000336001600160a01b03166001600160a01b0316815260200190815260200160002060008d6001600160a01b03166001600160a01b03168152602001908152602001600020600082015181600001556020820151816001019080519060200190610c0f929190612716565b5060408201518051600280840191825560208301516003850180549192909160ff1916906001908490811115610c4757610c47612f2d565b0217905550604082015160018201805461ff00191661010083600b811115610c7157610c71612f2d565b021790555060608281015160028301556080830151600383015560a0909201516004909101558201518051610cb09160078401916020909101906127c6565b506080820151816008015560a0820151816009015560c082015181600a015560e082015181600b015561010082015181600c0160006101000a81548160ff02191690831515021790555061012082015181600c0160016101000a81548160ff02191690831515021790555061014082015181600c0160026101000a81548160ff021916908315150217905550905050600160066000336001600160a01b03166001600160a01b0316815260200190815260200160002060006101000a81548160ff02191690831515021790555060076000336001600160a01b03166001600160a01b031681526020019081526020016000208b9080600181540180825580915050600190039060005260206000200160009091909190916101000a8154816001600160a01b0302191690836001600160a01b031602179055507f68f1f4a765c80cce6152bba70adcfe422531198b0d733f8555bd9b2f1c0feb44336001604051610e319291906001600160a01b039290921682521515602082015260400190565b60405180910390a15050505050505050505050565b600a5460405163e75600c360e01b81523360048201526001600160a01b039091169063e75600c39060240160206040518083038186803b158015610e8957600080fd5b505afa158015610e9d573d6000803e3d6000fd5b505050506040513d601f19601f82011682018060405250810190610ec19190612a24565b1515600114610f125760405162461bcd60e51b815260206004820152601c60248201527f4f6e6c79204d616b65722063616e20616464204d6174657269616c2e0000000060448201526064016102d4565b600084600b811115610f2657610f26612f2d565b1415610f665760405162461bcd60e51b815260206004820152600f60248201526e10dbdb1bdc881b9bdd081d985b1a59608a1b60448201526064016102d4565b610f6f86612642565b15610fcf5760405162461bcd60e51b815260206004820152602a60248201527f546865726520697320616c72656164792061206d6174657269616c20776974686044820152692074686973206e616d6560b01b60648201526084016102d4565b60006040518060c00160405280888152602001876002811115610ff457610ff4612f2d565b815260200186600b81111561100b5761100b612f2d565b8152602080820187905260408083018790526060909201859052336000908152600890915290812091925087600281111561104857611048612f2d565b600281111561105957611059612f2d565b81526020808201929092526040016000908120805460018181018355918352918390208451600590930201918255918301518183018054859460ff19909116908360028111156110ab576110ab612f2d565b0217905550604082015160018201805461ff00191661010083600b8111156110d5576110d5612f2d565b0217905550606082015160028201556080820151600382015560a0909101516004909101555050336000908152600960209081526040822080546001810182559083529120019490945550505050565b600a54604051629c95e160e41b81523360048201526001600160a01b03909116906309c95e109060240160206040518083038186803b15801561116757600080fd5b505afa15801561117b573d6000803e3d6000fd5b505050506040513d601f19601f8201168201806040525081019061119f9190612a24565b15156001146111c05760405162461bcd60e51b81526004016102d490612dd8565b600a5460405163e75600c360e01b81523360048201526001600160a01b039091169063e75600c39060240160206040518083038186803b15801561120357600080fd5b505afa158015611217573d6000803e3d6000fd5b505050506040513d601f19601f8201168201806040525081019061123b9190612a24565b151560011461125c5760405162461bcd60e51b81526004016102d490612e0f565b336000908152600760205260409020805461127990600190612ee5565b8154811061128957611289612f59565b60009182526020808320909101543383526007909152604090912080546001600160a01b0390921691839081106112c2576112c2612f59565b600091825260208083209190910180546001600160a01b0319166001600160a01b03949094169390931790925533815260079091526040902080548061130a5761130a612f43565b600082815260209020810160001990810180546001600160a01b031916905501905550565b3360009081526009602090815260409182902080548351818402810184019094528084526060939283018282801561138657602002820191906000526020600020905b815481526020019060010190808311611372575b5050505050905090565b6000805b3360009081526007602052604090205481101561094757816113b581612efc565b92505080806113c390612efc565b915050611394565b600a5460405163e75600c360e01b81523360048201526001600160a01b039091169063e75600c39060240160206040518083038186803b15801561140e57600080fd5b505afa158015611422573d6000803e3d6000fd5b505050506040513d601f19601f820116820180604052508101906114469190612a24565b15156001146114975760405162461bcd60e51b815260206004820181905260248201527f4f6e6c79204d616b65722063616e20757064617465204d6174657269616c732e60448201526064016102d4565b6114a086612642565b15156001146114c15760405162461bcd60e51b81526004016102d490612da1565b60005b336000908152600860205260408120908760028111156114e6576114e6612f2d565b60028111156114f7576114f7612f2d565b81526020810191909152604001600020548110156116c357336000908152600860205260408120889188600281111561153257611532612f2d565b600281111561154357611543612f2d565b8152602001908152602001600020828154811061156257611562612f59565b90600052602060002090600502016000015414156116b1576040518060c0016040528088815260200187600281111561159d5761159d612f2d565b815260200186600b8111156115b4576115b4612f2d565b81526020808201879052604080830187905260609092018590523360009081526008909152908120908860028111156115ef576115ef612f2d565b600281111561160057611600612f2d565b8152602001908152602001600020828154811061161f5761161f612f59565b90600052602060002090600502016000820151816000015560208201518160010160006101000a81548160ff0219169083600281111561166157611661612f2d565b0217905550604082015160018201805461ff00191661010083600b81111561168b5761168b612f2d565b0217905550606082015160028201556080820151600382015560a0909101516004909101555b806116bb81612efc565b9150506114c4565b50505050505050565b33600090815260086020908152604080832060018452909152808220546002835281832054838052918320546060939261170591612ecd565b61170f9190612ecd565b90508067ffffffffffffffff81111561172a5761172a612f6f565b60405190808252806020026020018201604052801561176357816020015b611750612801565b8152602001906001900390816117485790505b50915060005b60038110156119335760005b3360009081526008602052604081209083600281111561179757611797612f2d565b60028111156117a8576117a8612f2d565b60028111156117b9576117b9612f2d565b815260208101919091526040016000205481101561192057336000908152600860205260408120908360028111156117f3576117f3612f2d565b600281111561180457611804612f2d565b600281111561181557611815612f2d565b8152602001908152602001600020818154811061183457611834612f59565b90600052602060002090600502016040518060c0016040529081600082015481526020016001820160009054906101000a900460ff16600281111561187b5761187b612f2d565b600281111561188c5761188c612f2d565b81526020016001820160019054906101000a900460ff16600b8111156118b4576118b4612f2d565b600b8111156118c5576118c5612f2d565b81526002820154602082015260038201546040820152600490910154606090910152846118f28385612ecd565b8151811061190257611902612f59565b6020026020010181905250808061191890612efc565b915050611775565b508061192b81612efc565b915050611769565b505090565b600a5460405163e75600c360e01b81523360048201526001600160a01b039091169063e75600c39060240160206040518083038186803b15801561197b57600080fd5b505afa15801561198f573d6000803e3d6000fd5b505050506040513d601f19601f820116820180604052508101906119b39190612a24565b1515600114611a045760405162461bcd60e51b815260206004820181905260248201527f4f6e6c79204d616b65722063616e2064656c657465204d6174657269616c732e60448201526064016102d4565b611a0d82612642565b1515600114611a2e5760405162461bcd60e51b81526004016102d490612da1565b60005b33600090815260086020526040812090836002811115611a5357611a53612f2d565b6002811115611a6457611a64612f2d565b8152602081019190915260400160002054811015611d20573360009081526008602052604081208491846002811115611a9f57611a9f612f2d565b6002811115611ab057611ab0612f2d565b81526020019081526020016000208281548110611acf57611acf612f59565b9060005260206000209060050201600001541415611d0e5733600090815260086020526040812090836002811115611b0957611b09612f2d565b6002811115611b1a57611b1a612f2d565b8152602080820192909252604090810160009081203382526008909352908120600191856002811115611b4f57611b4f612f2d565b6002811115611b6057611b60612f2d565b8152602081019190915260400160002054611b7b9190612ee5565b81548110611b8b57611b8b612f59565b6000918252602080832033845260089091526040832060059092020191846002811115611bba57611bba612f2d565b6002811115611bcb57611bcb612f2d565b81526020019081526020016000208281548110611bea57611bea612f59565b600091825260209091208254600590920201908155600180830154818301805460ff90921692909160ff191690836002811115611c2957611c29612f2d565b0217905550600182810154908201805460ff61010093849004169261ff00199091169083600b811115611c5e57611c5e612f2d565b021790555060028281015482820155600380840154908301556004928301549290910191909155336000908152600860205260408120918490811115611ca657611ca6612f2d565b6002811115611cb757611cb7612f2d565b8152602001908152602001600020805480611cd457611cd4612f43565b60008281526020812060056000199093019283020181815560018101805461ffff1916905560028101829055600381018290556004015590555b80611d1881612efc565b915050611a31565b5060005b33600090815260096020526040902054811015611e2357336000908152600960205260409020805484919083908110611d5f57611d5f612f59565b90600052602060002001541415611e11573360009081526009602052604090208054611d8d90600190612ee5565b81548110611d9d57611d9d612f59565b600091825260208083209091015433835260099091526040909120805483908110611dca57611dca612f59565b6000918252602080832090910192909255338152600990915260409020805480611df657611df6612f43565b60019003818190600052602060002001600090559055611e23565b80611e1b81612efc565b915050611d24565b5060005b33600090815260076020526040902054811015611f8f573360009081526005602090815260408083206007909252822080548693919085908110611e6d57611e6d612f59565b60009182526020808320909101546001600160a01b031683528201929092526040019020600201541415611f7d5733600090815260056020908152604080832060079092528220805483919085908110611ec957611ec9612f59565b60009182526020808320909101546001600160a01b0316835282019290925260400190208154600280830191825560018481015460039094018054939460ff1693909260ff1990911691908490811115611f2557611f25612f2d565b0217905550600182810154908201805460ff61010093849004169261ff00199091169083600b811115611f5a57611f5a612f2d565b021790555060028281015490820155600380830154908201556004918201549101555b80611f8781612efc565b915050611e27565b505050565b611f9c612801565b600a5460405163e75600c360e01b81523360048201526001600160a01b039091169063e75600c39060240160206040518083038186803b158015611fdf57600080fd5b505afa158015611ff3573d6000803e3d6000fd5b505050506040513d601f19601f820116820180604052508101906120179190612a24565b151560011461205c5760405162461bcd60e51b815260206004820152601160248201527027b832b930ba34b7b7103232b734b2b21760791b60448201526064016102d4565b61206582612642565b15156001146120865760405162461bcd60e51b81526004016102d490612da1565b60005b60038110156122b05760005b336000908152600860205260408120908360028111156120b7576120b7612f2d565b60028111156120c8576120c8612f2d565b60028111156120d9576120d9612f2d565b815260208101919091526040016000205481101561229d57336000908152600860205260408120859184600281111561211457612114612f2d565b600281111561212557612125612f2d565b600281111561213657612136612f2d565b8152602001908152602001600020828154811061215557612155612f59565b906000526020600020906005020160000154141561228b573360009081526008602052604081209083600281111561218f5761218f612f2d565b60028111156121a0576121a0612f2d565b60028111156121b1576121b1612f2d565b815260200190815260200160002081815481106121d0576121d0612f59565b90600052602060002090600502016040518060c0016040529081600082015481526020016001820160009054906101000a900460ff16600281111561221757612217612f2d565b600281111561222857612228612f2d565b81526020016001820160019054906101000a900460ff16600b81111561225057612250612f2d565b600b81111561226157612261612f2d565b81526002820154602082015260038201546040820152600490910154606090910152949350505050565b8061229581612efc565b915050612095565b50806122a881612efc565b915050612089565b50919050565b6122be6126b1565b600a54604051629c95e160e41b81523360048201526001600160a01b03909116906309c95e109060240160206040518083038186803b15801561230057600080fd5b505afa158015612314573d6000803e3d6000fd5b505050506040513d601f19601f820116820180604052508101906123389190612a24565b15156001146123595760405162461bcd60e51b81526004016102d490612dd8565b600a5460405163e75600c360e01b81523360048201526001600160a01b039091169063e75600c39060240160206040518083038186803b15801561239c57600080fd5b505afa1580156123b0573d6000803e3d6000fd5b505050506040513d601f19601f820116820180604052508101906123d49190612a24565b15156001146123f55760405162461bcd60e51b81526004016102d490612e0f565b3360009081526005602090815260408083206007909252822080549192918590811061242357612423612f59565b60009182526020808320909101546001600160a01b0316835282810193909352604091820190208151610160810183528154815260018201805484518187028101870190955280855291949293858401939092908301828280156124d657602002820191906000526020600020906000905b82829054906101000a900460ff1660028111156124b4576124b4612f2d565b8152602060019283018181049485019490930390920291018084116124955790505b50505050508152602001600282016040518060c0016040529081600082015481526020016001820160009054906101000a900460ff16600281111561251d5761251d612f2d565b600281111561252e5761252e612f2d565b81526020016001820160019054906101000a900460ff16600b81111561255657612556612f2d565b600b81111561256757612567612f2d565b815260200160028201548152602001600382015481526020016004820154815250508152602001600782018054806020026020016040519081016040528092919081815260200182805480156125dc57602002820191906000526020600020905b8154815260200190600101908083116125c8575b50505091835250506008820154602082015260098201546040820152600a8201546060820152600b8201546080820152600c9091015460ff808216151560a084015261010082048116151560c08401526201000090910416151560e09091015292915050565b600080805b336000908152600960205260409020548110156126aa5733600090815260096020526040902080548591908390811061268257612682612f59565b9060005260206000200154141561269857600191505b806126a281612efc565b915050612647565b5092915050565b604080516101608101825260008152606060208201529081016126d2612801565b815260200160608152602001600081526020016000815260200160008152602001600081526020016000151581526020016000151581526020016000151581525090565b82805482825590600052602060002090601f016020900481019282156127ba5791602002820160005b8382111561278b57835183826101000a81548160ff0219169083600281111561276a5761276a612f2d565b0217905550926020019260010160208160000104928301926001030261273f565b80156127b85782816101000a81549060ff021916905560010160208160000104928301926001030261278b565b505b50610947929150612838565b8280548282559060005260206000209081019282156127ba579160200282015b828111156127ba5782518255916020019190600101906127e6565b6040805160c08101909152600080825260208201908152602001600081526020016000815260200160008152602001600081525090565b5b808211156109475760008155600101612839565b80356001600160a01b038116811461286457600080fd5b919050565b600082601f83011261287a57600080fd5b8135602061288f61288a83612ea9565b612e78565b80838252828201915082860187848660051b89010111156128af57600080fd5b60005b858110156128d5576128c38261294d565b845292840192908401906001016128b2565b5090979650505050505050565b600082601f8301126128f357600080fd5b8135602061290361288a83612ea9565b80838252828201915082860187848660051b890101111561292357600080fd5b60005b858110156128d557813584529284019290840190600101612926565b803561286481612f85565b80356003811061286457600080fd5b6000806000806000806000806000806101408b8d03121561297c57600080fd5b6129858b61284d565b995060208b0135985060408b013567ffffffffffffffff808211156129a957600080fd5b6129b58e838f01612869565b995060608d01359150808211156129cb57600080fd5b506129d88d828e016128e2565b97505060808b0135955060a08b0135945060c08b0135935060e08b01359250612a046101008c01612942565b9150612a136101208c01612942565b90509295989b9194979a5092959850565b600060208284031215612a3657600080fd5b8151612a4181612f85565b9392505050565b600060208284031215612a5a57600080fd5b5035919050565b60008060408385031215612a7457600080fd5b82359150612a846020840161294d565b90509250929050565b60008060008060008060c08789031215612aa657600080fd5b86359550612ab66020880161294d565b94506040870135600c8110612aca57600080fd5b959894975094956060810135955060808101359460a0909101359350915050565b600080600060608486031215612b0057600080fd5b83359250612b106020850161294d565b9150604084013590509250925092565b600081518084526020808501945080840160005b83811015612b5757612b47878351612b92565b9582019590820190600101612b34565b509495945050505050565b600081518084526020808501945080840160005b83811015612b5757815187529582019590820190600101612b76565b60038110612ba257612ba2612f2d565b9052565b805182526020810151612bbc6020840182612b92565b506040810151600c8110612bd257612bd2612f2d565b6040830152606081810151908301526080808201519083015260a090810151910152565b6000610200825184526020830151816020860152612c1682860182612b20565b9150506040830151612c2b6040860182612ba6565b50606083015161010085830381870152612c458383612b62565b925060808501519150610120828188015260a08601519250610140838189015260c087015161016089015260e0870151610180890152828701519350612c906101a089018515159052565b9086015115156101c08801528501518015156101e08801529150612cb19050565b509392505050565b6020808252825182820181905260009190848201906040850190845b81811015612cf157835183529284019291840191600101612cd5565b50909695505050505050565b6020808252825182820181905260009190848201906040850190845b81811015612cf157612d2c838551612ba6565b9284019260c09290920191600101612d19565b6000602080830181845280855180835260408601915060408160051b870101925083870160005b82811015612d9457603f19888603018452612d82858351612bf6565b94509285019290850190600101612d66565b5092979650505050505050565b6020808252601a908201527f4e6f206d6174657269616c20776974682074686973206e616d65000000000000604082015260600190565b60208082526019908201527f506c61796572206e6f7420696e207468652073797374656d2e00000000000000604082015260600190565b60208082526022908201527f4f6e6c79204d616b65722063616e20676574207468656972205072696e746572604082015261399760f11b606082015260800190565b60c08101612e5f8284612ba6565b92915050565b602081526000612a416020830184612bf6565b604051601f8201601f1916810167ffffffffffffffff81118282101715612ea157612ea1612f6f565b604052919050565b600067ffffffffffffffff821115612ec357612ec3612f6f565b5060051b60200190565b60008219821115612ee057612ee0612f17565b500190565b600082821015612ef757612ef7612f17565b500390565b6000600019821415612f1057612f10612f17565b5060010190565b634e487b7160e01b600052601160045260246000fd5b634e487b7160e01b600052602160045260246000fd5b634e487b7160e01b600052603160045260246000fd5b634e487b7160e01b600052603260045260246000fd5b634e487b7160e01b600052604160045260246000fd5b8015158114612f9357600080fd5b5056fea2646970667358221220b3e83b25ba8a770d9dfa3c6b4fbcb10b8eb38205abdb2fe229812c9da088a30c64736f6c63430008070033",
  "immutableReferences": {},
  "source": "/*\n * @author Pipitone Antonio \n * @SPDX-License-Identifier: UNLICENSED\n */\npragma solidity >=0.4.22 <0.9.0;\npragma experimental ABIEncoderV2;\n\nimport \"./Structs/OnBoardingStructs.sol\";\n\nabstract contract IUser{\n    mapping (address => bool) public isPlayer;\n    function isMaker(address adr) virtual public view returns(bool);\n}\n\ncontract OnBoarding {\n    //Printer\n    MaterialDetails private NONE = MaterialDetails(\"\",MaterialType.ABS,MaterialColor.NONE,0,0,0);\n\n     //Printers\n    mapping (address => mapping(address => Printer)) private printers;\n    mapping (address => bool) private isPrinter;\n    mapping (address => address[]) private makerPrinters;\n\n    //Material\n    mapping (address => mapping (MaterialType => MaterialDetails[]) ) private materials;\n    mapping (address => bytes32[]) private materialsName;\n\n    event newPrinterAddition(address player_address, bool status);\n\n    IUser private Iuser;\n    constructor(address _user){\n        Iuser = IUser(_user);\n    }\n\n\n    //Functions Printers\n    function addPrinter(\n        address printerAddress,\n        bytes32 name, \n        MaterialType[] memory suppertedMaterial,\n        uint256[] memory nozzles,\n        uint256 nozzlesMounted, \n        uint256 printTemperature, \n        uint256 bedTemperature, \n        uint256 volume, \n        bool soluble,\n        bool foodSafety\n    ) public payable{\n        require( Iuser.isPlayer(msg.sender) == true, \"Player not in the system.\");\n        require( Iuser.isMaker(msg.sender) == true, \"Only Maker can add Printers.\");\n\n        Printer memory newPrinter = Printer(\n                                            name,\n                                            suppertedMaterial,\n                                            NONE, \n                                            nozzles, \n                                            nozzlesMounted, \n                                            printTemperature, \n                                            bedTemperature, \n                                            volume, \n                                            soluble, \n                                            foodSafety,\n                                            true\n                                            );\n        printers[msg.sender][printerAddress] = (newPrinter);  \n        isPrinter[msg.sender] = true;\n        makerPrinters[msg.sender].push(printerAddress);\n\n\n        emit newPrinterAddition(msg.sender, true);\n    }\n\n    function getMakerPrinters() \n    public view \n    returns (Printer[] memory mprinters){\n        require( Iuser.isPlayer(msg.sender) == true, \"Player not in the system.\");\n        require( Iuser.isMaker(msg.sender) == true, \"Only Maker can get their Printers.\");\n        mprinters = new Printer[](makerPrinters[msg.sender].length);\n        for (uint i = 0; i < makerPrinters[msg.sender].length; i++) {\n            mprinters[i] = printers[msg.sender][makerPrinters[msg.sender][i]];\n        }\n        return mprinters;\n    }\n    \n    function getMakerPrinter(uint256 index)public view returns(Printer memory myPrinter){\n        require( Iuser.isPlayer(msg.sender) == true, \"Player not in the system.\");\n        require( Iuser.isMaker(msg.sender) == true, \"Only Maker can get their Printers.\");\n        myPrinter=printers[msg.sender][makerPrinters[msg.sender][index]];\n        return myPrinter;\n        \n    }\n    \n    function removePrinter(uint256 index)public payable{\n        require( Iuser.isPlayer(msg.sender) == true, \"Player not in the system.\");\n        require( Iuser.isMaker(msg.sender) == true, \"Only Maker can get their Printers.\");\n        makerPrinters[msg.sender][index]=makerPrinters[msg.sender][makerPrinters[msg.sender].length-1];\n        makerPrinters[msg.sender].pop();\n        \n    }\n    \n    function getMakerNPrinters()\n    public view\n    returns(uint256 Nprinters){\n        for (uint i = 0; i < makerPrinters[msg.sender].length; i++) {\n            Nprinters++;\n        }\n        return Nprinters;\n    }\n\n    //Functions Materials\n    function checkMaterial(bytes32 name) \n    internal view returns(bool){\n        bool response = false;\n        for(uint i = 0; i < materialsName[msg.sender].length; i++ ){\n            if (materialsName[msg.sender][i] == name){\n                response = true;\n            }\n        }\n        return response;\n    }\n\n    function addMaterials(bytes32 name, MaterialType mType, MaterialColor mColor, uint256 quantityKG, uint256 printTemp, uint256 bedTemp)\n    public payable{\n        require( Iuser.isMaker(msg.sender) == true, \"Only Maker can add Material.\");\n        require(mColor != MaterialColor.NONE, \"Color not valid\");\n        require(checkMaterial(name) == false, \"There is already a material with this name\");\n        MaterialDetails memory newMaterial = MaterialDetails(name, mType,mColor, quantityKG, printTemp, bedTemp);    \n        materials[msg.sender][mType].push(newMaterial);\n        materialsName[msg.sender].push(name);\n    }\n\n    function getMaterials()\n    public view\n    returns (MaterialDetails[] memory av_materials){\n        \n        uint256 n_materials = materials[msg.sender][MaterialType.ABS].length+materials[msg.sender][MaterialType.PETG].length+materials[msg.sender][MaterialType.PLA].length;\n        av_materials = new MaterialDetails[](n_materials);\n        for (uint i = 0; i < 3; i++){\n            for(uint j=0; j < materials[msg.sender][MaterialType(i)].length; j++){\n                av_materials[i+j] = materials[msg.sender][MaterialType(i)][j];\n            }\n        }\n        return av_materials;\n    }\n    \n    \n    function getMaterial(bytes32 name)public view returns(MaterialDetails memory myMaterial){\n        require( Iuser.isMaker(msg.sender) == true, \"Operation denied.\");\n        require(checkMaterial(name) == true, \"No material with this name\");\n        for (uint i = 0; i < 3; i++){\n            for(uint j=0; j < materials[msg.sender][MaterialType(i)].length; j++){\n                if (materials[msg.sender][MaterialType(i)][j].name==name){\n                    return materials[msg.sender][MaterialType(i)][j];\n                }\n        }\n        \n    }\n    }\n\n    function updateMaterial(bytes32 name, MaterialType mType, MaterialColor mColor,uint256 quantityKG,uint256 printTemp,uint256 bedTemp)\n    public payable{\n        require( Iuser.isMaker(msg.sender) == true, \"Only Maker can update Materials.\");\n        require(checkMaterial(name) == true, \"No material with this name\");\n\n        for(uint j=0; j < materials[msg.sender][mType].length; j++){\n            if (materials[msg.sender][mType][j].name==name){\n                materials[msg.sender][mType][j] = MaterialDetails(name,mType, mColor, quantityKG,printTemp, bedTemp); \n            }\n        }\n    }\n\nfunction removeMaterial(bytes32 name, MaterialType mType) \n    public payable{\n        require( Iuser.isMaker(msg.sender) == true, \"Only Maker can delete Materials.\");\n        require(checkMaterial(name) == true, \"No material with this name\");\n\n        /*for(uint j=0; j < materials[msg.sender][mType].length; j++){\n            if (materials[msg.sender][mType][j].name==name){\n                materials[msg.sender][mType][j] = NONE;\n            }\n        }*/\n                for(uint j=0; j < materials[msg.sender][mType].length; j++){\n            if (materials[msg.sender][mType][j].name==name){\n                    materials[msg.sender][mType][j]=materials[msg.sender][mType] [materials[msg.sender][mType].length-1];\n                    materials[msg.sender][mType].pop();\n            }\n        }\n        \n        for(uint256 i =0; i< materialsName[msg.sender].length;i++){\n            if(materialsName[msg.sender][i]== name){\n            materialsName[msg.sender][i]=materialsName[msg.sender][materialsName[msg.sender].length-1];\n            materialsName[msg.sender].pop();\n            break;\n            }\n        }\n        for (uint i = 0; i < makerPrinters[msg.sender].length; i++) {\n            if(printers[msg.sender][makerPrinters[msg.sender][i]].mountedMaterial.name == name){\n                printers[msg.sender][makerPrinters[msg.sender][i]].mountedMaterial = NONE;\n            }\n        }\n    }\n\n    function mountMaterial(bytes32 name, MaterialType mType, uint256 printer)\n    public payable{\n        require(Iuser.isMaker(msg.sender) == true, \"Only Maker can delete Materials.\");\n        require(checkMaterial(name) == true, \"No material with this name\");\n        \n        for(uint j=0; j < materials[msg.sender][mType].length; j++){\n            if (materials[msg.sender][mType][j].name==name){\n                printers[msg.sender][makerPrinters[msg.sender][printer]].mountedMaterial = materials[msg.sender][mType][j];\n            }\n        }\n    }\n    \n    \n    function getMterialsName()public view returns(bytes32 [] memory materials){\n    \n        return materialsName[msg.sender];\n    }\n\n}\n",
  "sourcePath": "/home/mike/Scrivania/provaFrontEnd/af2-smart-contract/contracts/1_OnBoarding/OnBoarding.sol",
  "compiler": {
    "name": "solc",
    "version": "0.8.7+commit.e28d00a7.Emscripten.clang"
  },
  "schemaVersion": "3.4.6",
  "updatedAt": "2022-06-08T07:24:46.765Z",
  "networkType": "ethereum",
  "devdoc": {
    "kind": "dev",
    "methods": {},
    "version": 1
  },
  "userdoc": {
    "kind": "user",
    "methods": {},
    "version": 1
  }
}