{
  "contractName": "User",
  "abi": [
    {
      "anonymous": false,
      "inputs": [
        {
          "indexed": false,
          "internalType": "address",
          "name": "player_address",
          "type": "address"
        }
      ],
      "name": "newPlayerAddition",
      "type": "event"
    },
    {
      "inputs": [
        {
          "internalType": "address",
          "name": "",
          "type": "address"
        }
      ],
      "name": "isPlayer",
      "outputs": [
        {
          "internalType": "bool",
          "name": "",
          "type": "bool"
        }
      ],
      "stateMutability": "view",
      "type": "function",
      "constant": true
    },
    {
      "inputs": [
        {
          "internalType": "bytes32",
          "name": "position",
          "type": "bytes32"
        },
        {
          "internalType": "bytes32",
          "name": "username",
          "type": "bytes32"
        }
      ],
      "name": "addCaller",
      "outputs": [],
      "stateMutability": "payable",
      "type": "function",
      "payable": true
    },
    {
      "inputs": [
        {
          "internalType": "bytes32",
          "name": "position",
          "type": "bytes32"
        },
        {
          "internalType": "bytes32",
          "name": "username",
          "type": "bytes32"
        },
        {
          "internalType": "uint256",
          "name": "from",
          "type": "uint256"
        },
        {
          "internalType": "uint256",
          "name": "to",
          "type": "uint256"
        }
      ],
      "name": "addMaker",
      "outputs": [],
      "stateMutability": "payable",
      "type": "function",
      "payable": true
    },
    {
      "inputs": [
        {
          "internalType": "bool",
          "name": "maker",
          "type": "bool"
        },
        {
          "internalType": "bytes32",
          "name": "position",
          "type": "bytes32"
        },
        {
          "internalType": "bytes32",
          "name": "username",
          "type": "bytes32"
        },
        {
          "internalType": "uint256",
          "name": "from",
          "type": "uint256"
        },
        {
          "internalType": "uint256",
          "name": "to",
          "type": "uint256"
        }
      ],
      "name": "addPlayer",
      "outputs": [],
      "stateMutability": "payable",
      "type": "function",
      "payable": true
    },
    {
      "inputs": [],
      "name": "getPlayerInfo",
      "outputs": [
        {
          "components": [
            {
              "internalType": "enum PlayerType",
              "name": "playerType",
              "type": "uint8"
            },
            {
              "internalType": "bytes32",
              "name": "username",
              "type": "bytes32"
            },
            {
              "internalType": "bytes32",
              "name": "position",
              "type": "bytes32"
            },
            {
              "internalType": "uint256",
              "name": "reputation",
              "type": "uint256"
            },
            {
              "internalType": "uint256",
              "name": "weight",
              "type": "uint256"
            }
          ],
          "internalType": "struct AirPlayer",
          "name": "airPlayer",
          "type": "tuple"
        },
        {
          "components": [
            {
              "internalType": "uint256",
              "name": "avaiabilityRangeFrom",
              "type": "uint256"
            },
            {
              "internalType": "uint256",
              "name": "avaiabilityRangeTo",
              "type": "uint256"
            },
            {
              "internalType": "bool",
              "name": "avaiableToPrint",
              "type": "bool"
            }
          ],
          "internalType": "struct AirMaker",
          "name": "airMaker",
          "type": "tuple"
        }
      ],
      "stateMutability": "view",
      "type": "function",
      "constant": true
    },
    {
      "inputs": [],
      "name": "getPlayers",
      "outputs": [
        {
          "components": [
            {
              "internalType": "enum PlayerType",
              "name": "playerType",
              "type": "uint8"
            },
            {
              "internalType": "bytes32",
              "name": "username",
              "type": "bytes32"
            },
            {
              "internalType": "bytes32",
              "name": "position",
              "type": "bytes32"
            },
            {
              "internalType": "uint256",
              "name": "reputation",
              "type": "uint256"
            },
            {
              "internalType": "uint256",
              "name": "weight",
              "type": "uint256"
            }
          ],
          "internalType": "struct AirPlayer[]",
          "name": "pl",
          "type": "tuple[]"
        }
      ],
      "stateMutability": "view",
      "type": "function",
      "constant": true
    },
    {
      "inputs": [],
      "name": "getNPlayers",
      "outputs": [
        {
          "internalType": "uint256",
          "name": "",
          "type": "uint256"
        }
      ],
      "stateMutability": "view",
      "type": "function",
      "constant": true
    },
    {
      "inputs": [],
      "name": "getNMakers",
      "outputs": [
        {
          "internalType": "uint256",
          "name": "",
          "type": "uint256"
        }
      ],
      "stateMutability": "view",
      "type": "function",
      "constant": true
    },
    {
      "inputs": [],
      "name": "getNCallers",
      "outputs": [
        {
          "internalType": "uint256",
          "name": "",
          "type": "uint256"
        }
      ],
      "stateMutability": "view",
      "type": "function",
      "constant": true
    },
    {
      "inputs": [
        {
          "internalType": "address",
          "name": "adr",
          "type": "address"
        }
      ],
      "name": "isMaker",
      "outputs": [
        {
          "internalType": "bool",
          "name": "",
          "type": "bool"
        }
      ],
      "stateMutability": "view",
      "type": "function",
      "constant": true
    }
  ],
  "bytecode": "0x608060405234801561001057600080fd5b50610954806100206000396000f3fe6080604052600436106100915760003560e01c8063d335be5411610059578063d335be5414610154578063e75600c314610167578063eb1ed9b314610187578063edb7b8c01461019c578063f8a98d4c146101af57600080fd5b806309c95e10146100965780638a05b329146100db5780638b5b9ccc146100fa578063cbac31241461011c578063d1df81df14610131575b600080fd5b3480156100a257600080fd5b506100c66100b13660046106b8565b60046020526000908152604090205460ff1681565b60405190151581526020015b60405180910390f35b3480156100e757600080fd5b506001545b6040519081526020016100d2565b34801561010657600080fd5b5061010f6101c4565b6040516100d291906107d0565b61012f61012a366004610731565b61031a565b005b34801561013d57600080fd5b50610146610366565b6040516100d2929190610861565b61012f6101623660046106e8565b6104cf565b34801561017357600080fd5b506100c66101823660046106b8565b610620565b34801561019357600080fd5b506100ec610657565b61012f6101aa366004610753565b610674565b3480156101bb57600080fd5b506003546100ec565b60015460609067ffffffffffffffff8111156101e2576101e2610908565b60405190808252806020026020018201604052801561023b57816020015b6040805160a0810182526000808252602080830182905292820181905260608201819052608082015282526000199092019101816102005790505b50905060005b6001548110156103165760008060018381548110610261576102616108f2565b60009182526020808320909101546001600160a01b031683528201929092526040908101909120815160a081019092528054829060ff1660018111156102a9576102a96108dc565b60018111156102ba576102ba6108dc565b81526020016001820154815260200160028201548152602001600382015481526020016004820154815250508282815181106102f8576102f86108f2565b6020026020010181905250808061030e906108ab565b915050610241565b5090565b3360009081526004602052604090205460ff16156103535760405162461bcd60e51b815260040161034a9061081e565b60405180910390fd5b610362600083836000806104cf565b5050565b6040805160a081018252600080825260208083018290528284018290526060808401839052608084018390528451908101855282815290810182905292830152903360009081526004602052604090205460ff16151560011461040b5760405162461bcd60e51b815260206004820152601960248201527f506c61796572206e6f7420696e207468652073797374656d2e00000000000000604482015260640161034a565b33600090815260208181526040808320600290925291829020825160a081019093528154919290918390829060ff16600181111561044b5761044b6108dc565b600181111561045c5761045c6108dc565b815260200160018201548152602001600282015481526020016003820154815260200160048201548152505091508060405180606001604052908160008201548152602001600182015481526020016002820160009054906101000a900460ff1615151515815250509050915091509091565b6001805480820182557fb10e2d527612073b26eecdfd717e6a320cf44b4afac2b0732d9fcbe2b7fa0cf60180546001600160a01b031916339081179091556000908152600460209081526040808320805460ff1990811686179091559183905290912080549091168217905585151514156105bd5733600081815260208181526040808320805460ff199081169091556002928390529083209182018054909116905584815560019081018490556003805491820181559091527fc2575a0e9e593c00f959f8c92f12db2869c3395a3b0502d05e2516446f71f85b0180546001600160a01b03191690911790555b336000818152602081815260408083206001810188905560028101899055600381018490556004019290925590519182527f1c5d06a0672792ca8a9a7e2ec6e3d76dbfee51e2a23c2340bf70f81a29c9dd6d910160405180910390a15050505050565b6000806001600160a01b03831660009081526020819052604090205460ff166001811115610650576106506108dc565b1492915050565b600061066260035490565b60015461066f9190610894565b905090565b3360009081526004602052604090205460ff16156106a45760405162461bcd60e51b815260040161034a9061081e565b6106b26001858585856104cf565b50505050565b6000602082840312156106ca57600080fd5b81356001600160a01b03811681146106e157600080fd5b9392505050565b600080600080600060a0868803121561070057600080fd5b8535801515811461071057600080fd5b97602087013597506040870135966060810135965060800135945092505050565b6000806040838503121561074457600080fd5b50508035926020909101359150565b6000806000806080858703121561076957600080fd5b5050823594602084013594506040840135936060013592509050565b8051600281106107a557634e487b7160e01b600052602160045260246000fd5b8252602081810151908301526040808201519083015260608082015190830152608090810151910152565b6020808252825182820181905260009190848201906040850190845b81811015610812576107ff838551610785565b9284019260a092909201916001016107ec565b50909695505050505050565b60208082526023908201527f506c6179657220616c726561647920616464656420746f20746865207379737460408201526232b69760e91b606082015260800190565b61010081016108708285610785565b825160a0830152602083015160c08301526040830151151560e08301529392505050565b6000828210156108a6576108a66108c6565b500390565b60006000198214156108bf576108bf6108c6565b5060010190565b634e487b7160e01b600052601160045260246000fd5b634e487b7160e01b600052602160045260246000fd5b634e487b7160e01b600052603260045260246000fd5b634e487b7160e01b600052604160045260246000fdfea2646970667358221220e0181769f59c698a4a6fdf00f026e209a6cac2b745ef1edd589eec65a911a71f64736f6c63430008070033",
  "immutableReferences": {},
  "source": "/*\n * @author Pipitone Antonio \n * @SPDX-License-Identifier: UNLICENSED\n */\npragma solidity >=0.4.22 <0.9.0;\npragma experimental ABIEncoderV2;\n\nimport \"./Structs/UserStructs.sol\";\n\ncontract User {\n    //Player - Common Details Maker-Caller\n    mapping (address => AirPlayer) private airPlayers;  \n    address[] private playerAddresses;\n    //Details Maker\n    mapping (address =>AirMaker) private airMakers;\n    address[] private makerAddress;\n    //To check if a user is registered; \n    mapping (address => bool) public isPlayer;\n\n\n    //Events-----------------------------\n    event newPlayerAddition(address player_address);\n    //-----------------------------------\n\n\n    //Functions--------------------------\n    //Functions Players\n    function addCaller(bytes32 position, bytes32 username/*, bytes32 _hashMsg, bytes memory _signature*/)\n    public payable{\n        //Check for existing player\n        require( isPlayer [msg.sender] == false, \"Player already added to the system.\" );\n        //checkIdentity(_hashMsg, _signature);\n        addPlayer(false, position, username, 0, 0);\n\n    }\n\n    function addMaker(bytes32 position, bytes32 username, uint256 from, uint256 to/*, bytes32 _hashMsg, bytes memory _signature*/)\n    public payable{\n        //Check for existing player\n        require( isPlayer [msg.sender] == false, \"Player already added to the system.\" );\n        //checkIdentity(_hashMsg, _signature);\n        addPlayer(true, position, username, from, to);\n    }\n\n    function addPlayer(bool maker, bytes32 position, bytes32 username, uint256 from, uint256 to) \n    public payable{\n        //Push Player address\n        playerAddresses.push(msg.sender);\n\n        //Set player to 1 to denote that player is added to the system\n        isPlayer[msg.sender] = true;\n\n        airPlayers[msg.sender].playerType = PlayerType.CALLER;\n        \n        if (maker==true){\n            airPlayers[msg.sender].playerType = PlayerType.MAKER;\n            airMakers[msg.sender].avaiableToPrint = false;\n            airMakers[msg.sender].avaiabilityRangeFrom = from;\n            airMakers[msg.sender].avaiabilityRangeTo = to;\n            makerAddress.push(msg.sender);\n        }\n\n        airPlayers[msg.sender].username = username;\n        airPlayers[msg.sender].position = position;\n\n        //Default value\n        airPlayers[msg.sender].reputation = 0;  \n        airPlayers[msg.sender].weight = 0;\n        \n        //Event for successful registration\n        emit newPlayerAddition(msg.sender);\n    }\n\n    function getPlayerInfo()\n    public view \n    returns (AirPlayer memory airPlayer, AirMaker memory airMaker){\n        require( isPlayer [msg.sender] == true, \"Player not in the system.\" );\n\n        return (airPlayers[msg.sender], airMakers[msg.sender]);\n    }\n\n    //TEST Function\n    function getPlayers() \n    public view \n    returns (AirPlayer[] memory pl){\n        pl = new AirPlayer[](playerAddresses.length);\n        for (uint i = 0; i < playerAddresses.length; i++) {\n            pl[i] = airPlayers[playerAddresses[i]];\n        }\n        return pl;\n    }\n\n    //TEST Function \n    function getNPlayers()\n    public view returns(uint256){\n        return playerAddresses.length;\n    }\n\n    //TEST Function\n    function getNMakers()\n    public view returns(uint256){\n        return makerAddress.length;\n    }\n\n    //TEST Function\n    function getNCallers()\n    public view returns(uint256){\n        return getNPlayers() - getNMakers();\n    }\n\n    function isMaker(address adr) \n    public view returns(bool){\n        return airPlayers[adr].playerType == PlayerType.MAKER;\n    } \n\n    function checkIdentity(bytes32 _hashMsg, bytes memory _signature) \n    private view{\n        //Check for identity of the user registering\n        (uint8 _v, bytes32 _r, bytes32 _s) = splitSignature(_signature);\n        bytes32 prefixedHash = keccak256(abi.encodePacked(\"\\x19Ethereum Signed Message:\\n32\", _hashMsg));\n        require(ecrecover(prefixedHash, _v, _r, _s) == msg.sender, \"The registration identity verification failed.\"); \n    }\n\n    function splitSignature(bytes memory sig)\n    private pure\n    returns (uint8, bytes32, bytes32){\n        require(sig.length == 65);\n\n        bytes32 r;\n        bytes32 s;\n        uint8 v;\n\n        assembly {\n            // first 32 bytes, after the length prefix\n            r := mload(add(sig, 32))\n            // second 32 bytes\n            s := mload(add(sig, 64))\n            // final byte (first byte of the next 32 bytes)\n            v := byte(0, mload(add(sig, 96)))\n        }\n        \n        if (v < 27) {\n            v += 27;\n        }\n\n        return (v, r, s);\n    }\n}\n",
  "sourcePath": "/home/mike/Scrivania/provaFrontEnd/af2-smart-contract/contracts/1_OnBoarding/User.sol",
  "compiler": {
    "name": "solc",
    "version": "0.8.7+commit.e28d00a7.Emscripten.clang"
  },
  "schemaVersion": "3.4.6",
  "updatedAt": "2022-06-08T07:24:47.140Z",
  "networkType": "ethereum",
  "devdoc": {
    "kind": "dev",
    "methods": {},
    "version": 1
  },
  "userdoc": {
    "kind": "user",
    "methods": {},
    "version": 1
  }
}